:100000000C9435000C945D000C945D000C945D0024
:100010000C945D000C945D000C945D000C945D00EC
:100020000C945D000C945D000C945D000C945D00DC
:100030000C945D000C945D000C945D000C945D00CC
:100040000C9471010C945D000C94E1010C94BB01C3
:100050000C945D000C945D000C945D000C945D00AC
:100060000C945D000C945D00A10211241FBECFEF23
:10007000D8E0DEBFCDBF11E0A0E0B1E0E6EBF5E0F7
:1000800002C005900D92A631B107D9F721E0A6E193
:10009000B1E001C01D92AA3CB207E1F710E0C5E350
:1000A000D0E004C02197FE010E94CE02C433D107E4
:1000B000C9F70E9413020C94D9020C940000CF924D
:1000C000DF92EF92FF920F931F93CF93DF936C0118
:1000D0007A018B01C0E0D0E0CE15DF0581F0D801B8
:1000E0006D918D01D601ED91FC910190F081E02D93
:1000F000C6010995892B11F02196EECF7E01C7012B
:10010000DF91CF911F910F91FF90EF90DF90CF90F3
:100110000895089580E090E00895FC01538D448D8A
:10012000252F30E0842F90E0821B930B541710F0A2
:10013000CF96089501970895FC01918D828D9817AF
:1001400061F0828DDF01A80FB11D5D968C91928DBB
:100150009F5F9F73928F90E008958FEF9FEF0895B8
:10016000FC01918D828D981731F0828DE80FF11D81
:10017000858D90E008958FEF9FEF0895FC01918D9C
:10018000228D892F90E0805C9F4F821B91098F7395
:100190009927089584E291E00E94BE0021E0892B16
:1001A00009F420E0822F0895FC01848DDF01A80F5F
:1001B000B11DA35ABF4F2C91848D90E001968F738F
:1001C0009927848FA689B7892C93A089B1898C91AE
:1001D000837080648C93938D848D981306C00288FD
:1001E000F389E02D80818F7D80830895EF92FF92C7
:1001F0000F931F93CF93DF93EC0181E0888F9B8D4A
:100200008C8D981305C0E889F989808185FD26C009
:10021000F62E0B8D10E00F5F1F4F0F731127E02E8E
:100220008C8DE8120CC00FB607FCFACFE889F9896B
:10023000808185FFF5CFCE010E94D400F1CF8B8D58
:10024000FE01E80FF11DE35AFF4FF0829FB7F894CB
:100250000B8FEA89FB89808180620AC09FB7F8947E
:10026000EE89FF896083E889F989808183708064E1
:1002700080839FBF81E090E0DF91CF911F910F912C
:10028000FF90EF900895CF93DF93EC01888D882342
:10029000C9F0EA89FB89808185FD05C0A889B989F3
:1002A0008C9186FD0FC00FB607FCF5CF808185FFCE
:1002B000F2CFA889B9898C9185FFEDCFCE010E943C
:1002C000D400E7CFDF91CF91089580E090E0892BB3
:1002D00029F00E94CA0081110C94000008950E9428
:1002E000D4021F920F920FB60F9211242F933F93B7
:1002F0008F939F93AF93BF938091C6019091C70155
:10030000A091C801B091C9013091C50123E0230F2C
:100310002D3730F026E8230F0296A11DB11D03C032
:100320000196A11DB11D2093C5018093C601909334
:10033000C701A093C801B093C9018091C1019091F8
:10034000C201A091C301B091C4010196A11DB11DCC
:100350008093C1019093C201A093C301B093C401E3
:10036000BF91AF919F918F913F912F910F900FBEB1
:100370000F901F9018951F920F920FB60F92112495
:100380002F933F934F935F936F937F938F939F939D
:10039000AF93BF93EF93FF9384E291E00E94D40068
:1003A000FF91EF91BF91AF919F918F917F916F914D
:1003B0005F914F913F912F910F900FBE0F901F9023
:1003C00018951F920F920FB60F9211242F938F93AF
:1003D0009F93EF93FF93E0913401F0913501808179
:1003E000E0913A01F0913B0182FD12C09081809131
:1003F0003D018F5F8F7320913E01821751F0E09194
:100400003D01F0E0EC5DFE4F958F80933D0101C012
:100410008081FF91EF919F918F912F910F900FBE4F
:100420000F901F901895789484B5836084BD85B52E
:10043000836085BD80916E00816080936E0092E044
:1004400090938100809181008160809381008091F0
:1004500080008160809380008091B10084608093EF
:10046000B1008091B00081608093B00087E88093F4
:100470007A001092C100E0913401F091350190832F
:10048000E0913001F09131011082E0913201F09160
:1004900033018FEC808310923C01E0913801F091A0
:1004A000390186E08083E0913601F0913701808147
:1004B00088698083E0913601F091370180818F7DDA
:1004C0008083C6E1D1E084E291E00E94BE0018166C
:1004D0001906A4F584E291E00E949C00209122017B
:1004E00030912301F901EA5EFE4F8A3059F02B303A
:1004F000310540F480832F5F3F4F309323012093D9
:100500002201E1CF1082FE0101900020E9F731972E
:10051000AF014651514066E171E084E291E00E94F2
:100520005F0042E050E062E171E084E291E00E940D
:100530005F001092230110922201C5CF0E94650135
:10054000C2CFE4E2F1E01382128288EE93E0A0E0F1
:10055000B0E084839583A683B78384E091E09183A0
:10056000808385EC90E09587848784EC90E0978782
:10057000868780EC90E0918B808B81EC90E0938B70
:10058000828B82EC90E0958B848B86EC90E0978B4D
:10059000868B118E128E138E148E0895EE0FFF1F10
:1005A0000590F491E02D099481E090E0F8940C948A
:0605B000D902F894FFCF10
:1005B60000000000F6005F008D004301BE009C00B5
:0605C600B0000D0A000068
:107E8000112424B614BE80E07ED021FEEBC08EE02B
:107E90007AD0E0ECF0E0AFE7BFEF4899FECF9096E4
:107EA000489BFDCFB4831197F1F7B2E0B083B8E1FE
:107EB000B18357D0C82F823559F46BD0E0E8FEE784
:107EC000E058F109A89583E089D03097C9F73FC001
:107ED0008D7FF1F453D0D82FA0E0B1E042D08D9344
:107EE000DA13FCCF56D0C1110FC0A0E0B1E0F99970
:107EF000FECF1FBAF2BDE1BD8D9180BDFA9AF99A0D
:107F00003196DA13F4CF23C0A0E0B1E04CD01FC00B
:107F1000C33041F433D0C82F3CD085911BD0C15021
:107F2000E1F715C0C13071F429D0C82F32D0F999CA
:107F3000FECFF2BDE1BDF89A80B50CD03196C150AC
:107F4000B1F705C0C13511F488E01DD022D087E714
:107F500001D0AFCF9091C00095FFFCCF8093C600B9
:107F600008952D9A259A8091C00087FFFCCF84FD4B
:107F700013C0A8958091C6002D980895F2DFE82FD0
:107F8000F0DFF82FEECF98E19093600080936000CF
:107F90000895E7DF803219F088E0F5DFFFCF80EA4F
:107FA000D9CFFB01DC0160E86A0F9F01E0388EE762
:107FB000F807C8F483E012D0309629F48FE38D934C
:107FC0008FEC8C93119781E00D901D9007D0329625
:107FD000A613FACFF90185E001D081E187BFE895CA
:0A7FE00007B600FCFDCF1124089540
:067FFA000319D2CFE73F9E
:0400000300007E80FB
:00000001FF
