:100000000C9461000C947E000C947E000C947E0095
:100010000C947E000C947E000C947E000C947E0068
:100020000C947E000C947E000C947E000C94410194
:100030000C9433010C947E000C947E000C947E0092
:100040000C94E9000C947E000C947E000C947E00CD
:100050000C947E000C947E000C947E000C947E0028
:100060000C947E000C947E0064016D0176017F018A
:1000700088019101910100000000250028002B005B
:1000800000000000240027002A00000000002300D8
:1000900026002900040404040404040402020202E9
:1000A0000202030303030303020203010204081014
:1000B00020408001020408102001020408102040A2
:1000C000804011241FBECFEFD8E0DEBFCDBF11E0CE
:1000D000A0E0B1E0E6EAF5E002C005900D92A430A0
:1000E000B107D9F721E0A4E0B1E001C01D92A5322B
:1000F000B207E1F70E940F020C94D1020C940000A9
:10010000CF93DF9390E0FC01E555FF4F2491FC0174
:10011000EC56FF4F8491882361F190E0880F991F7E
:10012000FC01E058FF4FC591D491FC01EA58FF4F04
:10013000A591B491611109C09FB7F8948881209569
:1001400082238883EC912E230BC0623061F49FB729
:10015000F8948881322F309583238883EC912E2B5D
:100160002C939FBF06C08FB7F894E8812E2B28836D
:100170008FBFDF91CF9108950F931F9390E0FC0103
:10018000E555FF4F6491FC01EC56FF4FE491F0E020
:10019000EE0FFF1FE657FF4F8591949100E412E4A4
:1001A0002FE030E0462F0E94CA01611571058105DC
:1001B000910549F0DC01CB010196A11DB11DBC01E7
:1001C000CD019F7003C060E070E0CB011F910F91E3
:1001D00008951F920F920FB60F9211242F933F9301
:1001E0008F939F93AF93BF938091210190912201B0
:1001F000A0912301B09124013091200123E0230F2D
:100200002D3730F026E8230F0296A11DB11D03C043
:100210000196A11DB11D209320018093210190938F
:100220002201A0932301B093240180911C0190919D
:100230001D01A0911E01B0911F010196A11DB11DCC
:1002400080931C0190931D01A0931E01B0931F0188
:10025000BF91AF919F918F913F912F910F900FBEC2
:100260000F901F9018951F920F920FB60F921124A6
:100270008F9385B115B88F910F900FBE0F901F907F
:1002800018951F920F920FB60F9211248F939F9380
:10029000AF93BF93EF93FF93109285001092840069
:1002A00089E190E090938B0080938A00299AE091F5
:1002B0000001F09101013197E730F10508F044C0E9
:1002C000EC5CFF4F0C94CB028091180190911901C6
:1002D000A0911A01B0911B012CC080911401909142
:1002E0001501A0911601B091170123C08091100152
:1002F00090911101A0911201B09113011AC0809147
:100300000C0190910D01A0910E01B0910F0111C04F
:100310008091080190910901A0910A01B0910B010F
:1003200008C08091040190910501A0910601B0914F
:100330000701E4E0B695A79597958795EA95D1F7DB
:100340009093890080938800809100019091010131
:1003500001969093010180930001089784F0109218
:1003600085001092840080E992E090938900809348
:10037000880081E090E09093010180930001FF915B
:10038000EF91BF91AF919F918F910F900FBE0F9002
:100390001F901895CF92DF92EF92FF920F931F93C9
:1003A000E82FF92F05C0015011092109310961F128
:1003B000908196239417B9F305C0015011092109C2
:1003C000310911F1908196239413F7CFC12CD12CD0
:1003D000E12CF12C0AC08FEFC81AD80AE80AF80AF3
:1003E0000C151D052E053F0579F0808186238417A5
:1003F00091F36C2D7D2D8E2D9F2D1F910F91FF90D0
:10040000EF90DF90CF90089560E070E080E090E0A2
:100410001F910F91FF90EF90DF90CF900895789407
:1004200084B5836084BD85B5836085BD80916E0091
:10043000816080936E0082E08093810080918100D2
:100440008160809381008091800081608093800032
:100450008091B10084608093B1008091B000816090
:100460008093B00087E880937A001092C10061E029
:1004700089E00E94800060E082E00E94800060E0ED
:1004800084E00E94800060E087E00E94800060E0DD
:1004900088E00E94800060E08CE00E94800060E0C4
:1004A0008DE00E94800061E082E10E948000F8946B
:1004B000109280001092810080918100846080936E
:1004C000810080916F00866080936F00789480E94E
:1004D00092E09093890080938800C0E0D0E001E032
:1004E00010E08091020190910301019731F4449A48
:1004F000109203011092020106C088B118B810933F
:1005000003010093020182E00E94BC006093180185
:100510007093190180931A0190931B0184E00E944B
:10052000BC006093140170931501809316019093A1
:10053000170187E00E94BC006093100170931101C5
:10054000809312019093130188E00E94BC00609395
:100550000C0170930D0180930E0190930F018CE0BC
:100560000E94BC00609308017093090180930A0106
:1005700090930B018DE00E94BC0060930401709386
:1005800005018093060190930701209709F4A9CFF4
:100590000E940000A6CFEE0FFF1F0590F491E02D02
:0605A0000994F894FFCF5E
:0405A600010001004F
:00000001FF
